:020000040000FA
:06000000E1EF07F0120021
:0600080004EF08F01200F5
:060018000CEF08F01200DD
:020020000000DE
:0E0022000201A36BA769A869A969A66B010E6C
:10003000AA6F1200D9CFE6FFE1CFD9FFE652020145
:10004000A3511FE1020108BF1BD0400EE66EA50EB2
:10005000E66E000EE66E06EC06F0E552E552E5525D
:100060000201010EA36FDF6A400EDF5C09E2DF5080
:10007000EA6A600FE96E000EEA22EF6ADF2AF4D71F
:1000800096D10001A551080A01E180D10F0A01E1D2
:1000900023D1010A01E118D1030A01E1B4D0010A18
:1000A0006AE0070A5DE0010A01E081D10001020E69
:1000B000606F00013A0E616F0001010E626F000176
:1000C000010E636F0001646B100E656F666B676BEA
:1000D0000001686B300E696F6A6B6B6B0001030E79
:1000E0006C6F00016D6B6E6B300E6F6F706B00018B
:1000F0000E0E716F726B736B746B0001010E756F76
:100100000001766B776B200E786F796B0001080E1B
:100110007A6F7B6B7C6B7D6B00017E690001020E48
:100120007E6F00017F6B806BF00E816F826B000130
:10013000836B010E846F856B866B000187690201FA
:100140000CBF0DD0400EE66E600EE66E000EE66E41
:10015000D6EC05F0E552E552E5520201A36B27D13A
:100160000201010EAA6F0001A65102E10201AA6B71
:100170000201A36B1CD1400E0201A46FA56B02010A
:10018000000EA45D010EA5591FE20400A4C200F0F8
:10019000A5C201F0026A060E1F0B00C0F6FF01C0E7
:1001A000F7FF02C0F8FF06E0D890F636F736F836CB
:1001B000E806FAE1940EA66EA3D960EC06F00201FF
:1001C000A42B000EA523DBD7DF6ADF50A96EA86839
:1001D000040EA66E60EC06F093D9DF50DF2A006EA5
:1001E000016A026AFF0E005C000E0158000E025800
:1001F000ECE3F66AF76A200EF86E940EA66E80D9CC
:100200000201A36BD4D0300E0001A85D07E102010A
:10021000AA5101E132D90201A36BC9D0F00E00014D
:10022000A85D04E14DD90201A36BC1D0E8680201C9
:10023000A71905E1E868A81902E1E868A91906E12B
:10024000A6C0A7F2A7C0A8F2A8C0A9F2A70EE96E9F
:10025000020EEA6EEE500001A61908E1EE50000110
:10026000A71904E1EE500001A81900E12AE1DF6AB4
:100270000001AA51DF5C25E23A0E0001D880AA55A0
:10028000DF24EA6AAB0FE96E000EEA22EF50E66E59
:100290000201A651EA6AAB0FE96E020EEA22E552AC
:1002A000E750EF6E0201A62B0201A72B000EA82338
:1002B000000EA923100E0201A65D01E17DD8DF2A00
:1002C000D7D70201A36B73D077D80201A769A869B9
:1002D000A9690201A36B6BD00001070E606FA6C075
:1002E00061F0A7C062F0A8C063F0A9C064F0AAC022
:1002F00065F0A6C0F6FFA7C0F7FFA8C0F8FFDF6A49
:100300000001AA51DF5C31E2F00E0001A85D13E1AB
:10031000DF500001A625A96EA66AA6803A0E00014C
:10032000D880AA55DF24EA6A660FE96E000EEA2239
:10033000A8CFEFFF18D00900300EF85C08E1050ED9
:10034000F65C01E1F568080EF65C01E1F5683A0E2D
:100350000001D880AA55DF24EA6A660FE96E000E14
:10036000EA22F5CFEFFFDF2ACBD702010CBF0DD079
:10037000400EE66E600EE66E000EE66ED6EC05F000
:10038000E552E552E5520201A36B11D06492646A12
:10039000DF6AFF0EDF5C09E2E868E85004E0E80687
:1003A00000D000D0FAD7DF2AF4D7FF0000D0E55202
:1003B000E552E7CFD9FF12000001A16BA6C200F001
:1003C000016A026A00500201A75DF66E0150020147
:1003D000A859F76E02500201A959F86E0F0EF614D3
:1003E0000001A26FF00EF6160001A06B100E0001C6
:1003F000A05D1FE20001A25115E10201A6510FE02C
:100400000001A151EA6AAB0FE96E020EEA22EF5039
:10041000F56E0D000001A12B0201A60702D0F568C0
:100420000D0004D0F5680D000001A2070001A02B0B
:10043000DDD70A00A40EA66E63D80001A06B0201EE
:10044000A6510001A05D18E20001A1510001A02504
:10045000EA6AAB0FE96E020EEA22EF50E66E000187
:10046000A051EA6AAB0FE96E020EEA22E552E750AC
:10047000EF6E0001A02BE3D71200A6C0F6FFA7C0C5
:10048000F7FFA8C0F8FF0001A36B0001AA5100010B
:10049000A35D15E23A0E0001D880AA550001A325FC
:1004A000EA6AAB0FE96E000EEA22EF50F56E0C001F
:1004B000C40EA66E25D809000001A32BE6D71200B2
:1004C0000001A46B0001AA510001A45D18E2000123
:1004D000A6510001A425A96E3A0E0001D880AA55A4
:1004E0000001A425EA6AAB0FE96E000EEA22EF5084
:1004F000A86E040EA66E04D80001A42BE3D7120048
:10050000F29E550EA76EAA0EA76EA682A6B2FED7C1
:04051000A69412009B
:0C0514007DD9E652635032E1629602018C
:1005200000513C0BE842E8420D0828E1180E021980
:1005300023E1020E031920E1100E026F020E036F79
:10054000DF6ADF50006E016A080E005C000E015881
:1005500013E2DF50EA6A180FE96E020EEA22EF504A
:10056000E66EDF50EA6A100FE96E020EEA22E552EB
:10057000E750EF6EDF2AE5D70ED80AD03FD808D073
:10058000040E635C03E1629650D802D0000E01D0E5
:10059000010EE55242D13CD9E652020104BF046B80
:1005A0000201FD6BF56BF66BFB6BFC6B19EC04F059
:1005B000DF6ADF50006E016A010E005C000E015818
:1005C0001AE20201F65117E1F76ADF34FE0BF73643
:1005D000F66E9A0EF6260E0EF7220900F5CF00F001
:1005E0000800F5CF01F004D001C0FAFF0050F96E09
:1005F000FBDFDF2ADED7B7D8E5520FD1020E0201AA
:10060000F55D0EE184D80201180E026F020E036F31
:10061000080E016F00BD02D0C80E05D0880E03D0B1
:10062000DBD8E7D88C0E006F1200040E0001E55DE8
:100630000CE112C25CFF0F015C51000803E20001F3
:10064000050E02D00001030EE56F0201F50510E171
:1006500011D8020E0201FD5D03E10201840E06D0F5
:10066000020104BD02D0C80E01D0880E046F120032
:10067000ECEF03F0CDD8020EE1260201080EFB5D7F
:10068000000EFC590DE2FBC2DEFFFCC2DDFFFD5196
:1006900002E1010E03D0FD0506E1020EFD6F03D05D
:1006A000080EDE6EDD6A020104930491010EDB5038
:1006B0000413DFCF05F2000EDB500201FB5F010ED9
:1006C000DB50FC5B180EF96F020EFA6F0001E6A317
:1006D0000CD097D815E0F7C2F6FFF8C2F7FF080074
:1006E000F5507FD8F6E2DB06F4D78BD809E0F7C2E5
:1006F000E9FFF8C2EAFFEF5074D8F7E2DB06F5D75E
:10070000020EE15C02E2E16AE552E16E86D080D839
:10071000020EE126030E02010015E76E010EE7CF7F
:10072000DBFF01C2DFFFDE500201FB27DD50FC23AF
:10073000180EF76F020EF86F64D80EE0F7C2E9FFEB
:10074000F8C2EAFFEF50F9C2E9FFFAC2EAFFEF6E22
:1007500068D8F2E2DB06F0D7020EE15C02E2E16A61
:10076000E552E16E5AD064980201F65105E141D894
:10077000840E006F02011DD0020110AF1CD00201D7
:10078000FB510201165D0201FC510201175904E2FE
:1007900016C2FBF217C2FCF26DDF0201010EF56F0B
:1007A00028D8800E006F0201180E066F020E076F28
:1007B000C80E046F12000201020EF56F0201056BF4
:1007C000C80E046F0201080E016F180E026F020EB0
:1007D000036FC80E006F12000201F56B0201046B7B
:1007E0001200F9C2E9FFFAC2EAFFEF6E020111EF4F
:1007F00004F00201080E016F100E026F020E036F6B
:100800001200D9CFE9FFDACFEAFFEE50ED10120067
:10081000D9CFE6FFE1CFD9FF1200E552E7CFD9FFEC
:100820001200F92B000EFA23F72BF823DF06010E36
:020830001200B4
:0E08320002011051600BE842E842E842E84241
:10084000E842000901E012001151070A40E00B0ADA
:100850003EE0070A33E0010A23E00B0A1FE0020A28
:100860001DE0030A19E0080A10E0010A0CE00F0A73
:1008700008E0030A01E0120012D90001040EE56F3E
:10088000120068EF04F09FEF04F009D90201E70EAF
:10089000F76F000EF86F0CD0BAEF04F0ECEF04F035
:1008A00002D90201F76FF86BE80EF727000EF82364
:1008B0000001E6930201010EFB6F1200F4D8EA6A10
:1008C000E80FE96E000EEA2212C2EFFF12001200DA
:1008D000800E0201105D32E11351030A1FE0010A8C
:1008E0000AE0030A29E1DBD80201DA0EF76F0D0EE8
:1008F000F86F120E1ED0B2D8900EF6260E0EC0D88B
:10090000020E0201F76AF725F66EF851F722090088
:10091000F5CFFBF20A00F5CFFCF20ED09FD8940E73
:10092000F6260E0EADD8F7C2F6FFF8C2F7FF0800A4
:10093000F5500201FB6FFC6B0001E6831200AFD89B
:10094000070EE66E540EE66E0F0EA2D8010EE66E8E
:10095000E80EE66E000E9CD812C2E7F002011251BA
:1009600004E10001050EE56F12000001060EE56FBF
:10097000C0EF05F00201186B196B020110511F0B3B
:10098000020A0FE0030A0BE0010A18E188D802010D
:1009900018810001E6A112D0020118830FD07FD880
:1009A0000DD050D801E0010E62D8F9C2E9FFEA6E1D
:1009B000EF50040B03E00201010E186F0201F6056F
:1009C0000AE10201180EF76F020EF86F0001E693BC
:1009D0000201020EFB6F1200020112050EE110511E
:1009E0001F0B00090AE15BD8030E0201115D03E150
:1009F0000001E68102D00001E6910201125121E1DD
:100A000010511F0B02081DE114510F0B000919E0D2
:100A100019D801E0010E2BD8030E0201115D02E18D
:100A2000840E03D014AF07D0400EF9C2E9FFFAC21A
:100A3000EAFFEF6E1200880EF9C2E9FFFAC2EAFF80
:100A4000EF6E120030D80F0B080DF350016A000F43
:100A5000006E020E01221451800B120020D80201F8
:100A60001251F66EF76AD890F636F7361200040D7A
:100A7000F35002010024F96F000E0120FA6F1200FA
:100A8000F7220900F5CFF7F20A00F5CFF8F21200CD
:100A9000E66ED8EC06F0E552E552E552120002018E
:0E0AA000010EF66F1200FBDF0201145112006E
:020AAE00020143
:100AB00010511F0B010801E01200145101E0120057
:100AC000060E115D24E11351230A1FE0010A0DE017
:100AD000030A1BE1DCD80001E70505E10201FE0E77
:100AE000F76F0D0EF86F090E0DD0D1D80001E70594
:100AF00005E10201730EF76F0E0EF86F0001E705B6
:100B000004E11D0E0201FB6FFC6B0001E683020194
:100B10001051600BE842E842E842E842E84201082E
:100B200001E0120011510B0A25E0080A17E0090A3A
:100B300011E0080A09E00B0A05E0080A01E01200CA
:100B4000BEEF05F0BFEF05F0A2D80201E90EF76F86
:100B5000000E09D09CD813C2E9F0120098D8020107
:100B6000EA0EF76F000EF86F0001E6930201010E26
:100B7000FB6F12008CD812C2EAF0120012001200B1
:100B80000001EB6B0F011E0E546F0201400E096F46
:100B9000200E0A6F020E0B6F880E086F0201600EA6
:100BA0000E6F020E0F6F400E0C6F1200D9CFE6FFD2
:100BB000E1CFD9FFE652FC0EDB50400805E2400EC3
:100BC000F36EFC0EF3CFDBFFDF6AFC0EDB50DF5C65
:100BD0000FE2DF5050D8EF50E66EDF50EA6A600F48
:100BE000E96E020EEA22E552E750EF6EDF2AEDD7FA
:100BF000FC0EDBCF0DF2400E02010C170C7D880EAF
:100C00000C13E552E552E7CFD9FF1200D9CFE6FF2A
:100C1000E1CFD9FF0001EB6B020108BF26D0FC0E2B
:100C2000DBCF00F00951D880005403E2FC0E09C26A
:100C3000DBFF0001EB6BFC0EDB50EB5D0FE2EB51D9
:100C4000EA6A200FE96E020EEA22EF50E66EEB51DF
:100C500012D8E552E750EF6EEB2BEDD70201400EB4
:100C6000096F0817087D880E08130001EB51E55243
:100C7000E7CFD9FF1200E76EFD0EDBCFE9FFFE0ED6
:100C8000DBCFEAFFE750E926000EEA22120002015C
:060C9000020EF66F1200D7
:0A0C960064A60CD80001E50508E192
:100CA00064BA06D0626A606A60806088020EE56F8E
:100CB0001200646A606A64860001010EE56F12002A
:100CC0000001E55101E1120062B425D864B21200BE
:100CD00062B03AD862B817D862BA24D8030E0001BD
:100CE000E55D01E212000201FE6B040EFE5D0AE208
:100CF00062A608D08AEC02F0000901E162960201C6
:100D0000FE2BF3D71200608462986482A194A084C1
:100D10000300A09412006492609462A402D06294D2
:100D2000FCD712000F0153A10DD0800E0201005D0F
:100D300007E1840E0201045D03E102018C0E006FE5
:100D40000F015391629A12000F015F6B626A0F01EB
:100D50009F0E5B6F7B0E606E0F015C6B070EE66E85
:100D6000540EE66E0F0EE66E23D8E552E552E552BC
:100D70000F01160E536F62A605D0629600D000D008
:100D80000000F9D76498ECEC03F00201080E016F43
:100D90000201100E026F020E036F02018C0E006F33
:100DA0000001E6910001E76B0001030EE56F120000
:100DB000D9CFE6FFE1CFD9FFFD0EDBCFE9FFFE0E75
:100DC000DBCFEAFFFC0EDB5004E0EE6AFC0EDB0634
:0A0DD000F9D7E552E7CFD9FF120072
:060DDA00120100020000FE
:100DE0000008D8043C0002000102000109022900A9
:100DF000010100C0320904000002030000000921C3
:100E000011010001221D00070581034000010705B3
:100E100001034000010403090434034D0069006329
:100E20000072006F006300680069007000200054C9
:100E3000006500630068006E006F006C006F006763
:100E4000007900200049006E0063002E0026034850
:100E50000049004400200055005300420020004299
:100E6000006F006F0074006C006F0061006400652B
:100E70000072000600FF0901A101190129401500B7
:100E800026FF00750895408100190129409100C096
:0C0E9000EC0DEC0D150E190E4D0EAE0A07
:040E9C00200EF66EC0
:100EA000000EF76E000EF86E02010900F550F06FAB
:100EB0000900F550F16F03E1F06701D03DD0090062
:100EC000F550EB6F0900F550EC6F0900F550ED6F30
:100ED00009000900F550E96E0900F550EA6E0900B5
:100EE00009000900F550EE6F0900F550EF6F090099
:100EF0000900F6CFF2F2F7CFF3F2F8CFF4F2EBC23B
:100F0000F6FFECC2F7FFEDC2F8FF0201EE5302E17B
:100F1000EF5307E00900F550EE6EEE07F8E2EF0739
:100F2000F9D7F2C2F6FFF3C2F7FFF4C2F8FF0201ED
:0A0F3000F007000EF15BBFD71200BE
:060F3A007E6A7F6A0F0EC3
:100F4000C16E9468F00E936E8250800B0EE081505B
:100F5000800B03E18250020B08E0070EC16EF70E12
:100F60007E6E0F0E7F6E00EF08F00DD8040015D8CE
:100F7000060E0001E55D05E16450020B02E11AEC8A
:100F800000F0F4D71200140E616E0001E56B000151
:100F9000E66B0001E76B11EF00F04BEC06F060EF41
:020FA00006F059
:0E0FA200000EF36E00EE00F0030E01D81200F8
:100FB000EA6002D0EE6AFCD7F350E9601200EE6AF4
:020FC000FCD75C
:0E0FC20011EE00F021EE00F0F86A049C4EECF7
:0E0FD00007F0EFEC07F09DEC07F0FBD71200E6
:020FDE001200FF
:020000040030CA
:0100000000FF
:0100010032CC
:0100020021DC
:010003001EDE
:01000500807A
:010006008178
:0100080003F4
:01000900C036
:01000A0003F2
:01000B00E014
:01000C0003F0
:01000D0040B2
:00000001FF
