:020000040000FA
:1010000002EF08F067EF08F012010002000000088C
:10101000D804550001000102000105010905A101E4
:101020000901A10009300931150026FF0075089556
:10103000028102C005091901290815002501750161
:1010400095088102C00009022200010100803209D6
:101050000400000103010100092111010001222BFC
:10106000000705810308000104030904200353005D
:10107000750072007200650061006C006900740008
:10108000790020004C0061006200730014034E00E0
:101090004500530056006500720074006500720040
:1010A0000EBF66EF08F00EBD5CEF08F00D51EA6E62
:1010B0000C51E96EEF5012000C51F66E0D51F76EA7
:1010C0000E513F0BF86E0800F5501200120089EF28
:1010D00008F029512D6F2A512E6F326B336B7FEF41
:1010E00008F00001FF0E086F0E0E096F092F76EF52
:1010F00008F0082F74EF08F0322BD8B4332B32519C
:101100002D5D086F33512E5D0811D8A471EF08F0E2
:1011100012000001146B8CEF09F03F6F3951E16E42
:101120003A51E26E3F51416F406BA7EF08F03C51DE
:1011300040250C6F000E006E3D5100200D6F3E519A
:1011400000200E6F50EC08F0E66E0001402B40517D
:10115000415DD8A497EF08F01200020104BF12000D
:1011600000011351105DD8B4BBEF08F0D8B0BBEF4D
:1011700008F01051136FD880135111553B6F3B513C
:10118000125DD8B4C9EF08F0D8B0C9EF08F0125119
:101190003B6F780E11250201066F000E006E020EE5
:1011A0000020076F00013B510201056F04ADDDEF28
:1011B00008F0880E046FDFEF08F0C80E046F00011E
:1011C0003B5111271151135D1200080E126F116B64
:1011D000136B106B0201049DADEF08F0396F3951AC
:1011E0000201786F080E0001126F116B010E136F70
:1011F000010E106F0201049DADEF08F0296F295117
:10120000D8A425EF09F0180E396F020E3A6F2F514E
:101210003C6F30513D6F31513E6F36518DEC08F0CF
:10122000180E0201066F020E076F000137A11BEFB7
:1012300009F00201049D020104AD22EF09F0880EBD
:10124000046F1200C80E046F1200010E295DD8A4AD
:1012500050EF09F0280E396F020E3A6F2F513C6F94
:1012600030513D6F31513E6F36518DEC08F0280EF4
:1012700002010E6F020E0F6F0001365102010D6F59
:10128000000137A146EF09F002010C9D02010CADEF
:101290004DEF09F0880E0C6F1200C80E0C6F120093
:1012A000020E295DD8B41200030E295D1200840ECF
:1012B000020100131200080E0201016F100E026FEE
:1012C000020E036F030E0001165DD8A46EEF09F045
:1012D0008C0E376F0201046B70EF09F0C80E376F88
:1012E000000137510201006F1200376FD890373577
:1012F0003B6FD8903B37D8903B373B29396F02EE94
:1013000000F03951E9263851EF6E02EE00F03B5102
:10131000E926800EEF6E12002781B8EF0BF0020174
:10132000F95100010F6F060E0F5DD8A448EF0AF0C7
:101330000201FB510001376F0201FA510001386FC1
:10134000136B010E375DD8A4B8EF09F0120E136FBE
:10135000780E396F020E3A6F080E3C6F100E3D6F1B
:10136000000E40093E6F13518DEC08F02BEF0AF090
:10137000020E375DD8A4CFEF09F0220E136F780E5E
:10138000396F020E3A6F460E3C6F100E3D6F000E25
:1013900040093E6F13518DEC08F02BEF0AF0030E5D
:1013A000375DD8A416EF0AF03851D8A4E8EF09F059
:1013B000040E136F780E396F020E3A6F680E3C6F91
:1013C000100E3D6F000E40093E6F13518DEC08F07A
:1013D000010E0001385DD8A4FEEF09F0200E136F56
:1013E000780E396F020E3A6F6C0E3C6F100E3D6F27
:1013F000000E40093E6F13518DEC08F0020E000103
:10140000385DD8A42BEF0AF0140E136F780E396FE5
:10141000020E3A6F8C0E3C6F100E3D6F000E4009AD
:101420003E6F13518DEC08F02BEF0AF0220E375D62
:10143000D8A42BEF0AF02B0E136F780E396F020E23
:101440003A6F1A0E3C6F100E3D6F000E40093E6F52
:1014500013518DEC08F000011351D8B446EF0AF097
:10146000080E126F0201FF51D8A43CEF0AF0FE51A2
:101470000001106F3FEF0AF0FF0E0001106F030E26
:10148000166F116B0201049DADEF08F057EF09F0E4
:10149000050E0F5DD8A459EF0AF00201FA510001C0
:1014A000176F010E156FE5EC08F0060E0001166FC0
:1014B0001200090E0F5DD8A476EF0AF0060E166F23
:1014C000E5EC08F0030E0001146F0F0154895485F8
:1014D00054835487400E02010C6F080E096F200ED2
:1014E0000A6F020E0B6F800E086F12000A0E0F5D5E
:1014F000D8A480EF0AF0030E166F010EEEEF08F08D
:101500000F51D8A487EF0AF0000EEEEF08F012009A
:10151000D89063302B6FD8902B33D8902B3363A4A3
:101520009EEF0AF0D8900201043100012F6FD8908D
:101530002F330F0E2F152D6FA8EF0AF0D890020150
:10154000003100012F6FD8902F330F0E2F152D6F04
:101550002B51D8A436EF0BF00D0E2D5DD8A4D9EF8A
:101560000AF0326B02EE10F03251E926EF50086FAC
:1015700002EEF8F03251E9260851EF6E322B080ED8
:10158000325DD8A4B2EF0AF064985BEC09F0300E3B
:101590000201F81500012F6F2F51D8A4D2EF0AF0E5
:1015A0008FEF09F0200E2F5DD8B41200400E2F5D92
:1015B0001200090E2D5DD8A4FFEF0AF0030E165D90
:1015C000D8A4E5EF0AF0ADEF08F0060E165DD8A43A
:1015D000F8EF0AF0166B010E155DD8A4FEEF0AF0C5
:1015E000020E146F17510F015C6F0001156B120092
:1015F000050E165DD8B41200040E165D1200020E20
:101600002D5DD8A416EF0BF0030E165DD8A40BEFDA
:101610000BF0ADEF08F0040E165DD8B41200060E04
:10162000165DD8A415EF0BF0166B1200010E2D5DA0
:10163000D8A462EF0BF0050E165DD8A423EF0BF0D3
:10164000166B5BEF09F0020E165DD8A42AEF0BF0C3
:101650005BEF09F0030E165DD8A434EF0BF05BECE2
:1016600009F00001166B12005BEF09F063A45DEF57
:101670000BF0D8902B35326FD8903237D890323764
:10168000040E3227020E32252F6F02EE00F02F518A
:10169000E926EF50346F030E32252F6F02EE00F073
:1016A0002F51E926EF50356F32292F6F010E2B5D38
:1016B000D8A462EF0BF027811200080E386F2B516F
:1016C00075EF09F01200A1A4ADEF0BF0A194000199
:1016D000296B62A66FEF0BF088EC0AF062960001AE
:1016E000292B040E295DD8A469EF0BF062A0A3EFAB
:1016F0000BF00F015F6B626A0001176B0F01546BF7
:10170000556B566B576B586B596B5A6B160E536F64
:1017100062A68EEF0BF0629688EF0BF00001166B5D
:10172000156B6498080E0201056F180E066F020E05
:10173000076F046B080E016F100E026F020E036F2D
:101740008C0E006F629062BA629A62B8629862BC54
:10175000629C62A2ADEF0BF062921200030E0001D8
:10176000145DD8A4B6EF0BF00881120008911200A6
:10177000186B196B1A6B1B6B1C6B1D6B1E6B1F6B35
:10178000206B800E216F226B800E236FFF0E246F63
:10179000256B266B7E6A7F6AC26AC16AC06A6D6AFF
:1017A0006B6A6C6A146B646A140E616E6B0E606E09
:1017B000A094626A646A6486010E146F948C9486A5
:1017C0009488948A938E94829484938A63EC0BF029
:1017D000AEEC0BF00001279308B1278327A3E6EFB7
:1017E0000BF0800E236F82BCF8EF0BF0800E2327E6
:1017F00082B6FDEF0BF07F0E2327800E216F82B89B
:1018000004EF0CF0800E212782BA09EF0CF07F0E56
:101810002127256B81BE0EEF0CF0252B82B213EF32
:101820000CF0020E252782B418EF0CF0040E2527C9
:1018300081BA1DEF0CF0080E25272051215DD8B488
:1018400026EF0CF0010E266F2151206F2251235DEF
:10185000D8B42FEF0CF0010E266F2351226F2451C4
:10186000255DD8B438EF0CF0010E266F2551246F9A
:10187000010E265DD8A4E6EF0BF0266B2051186F01
:101880002251196F24511A6F000127B14CEF0CF04F
:1018900063EC0BF044EF0CF02791080E2B6F2C6BD0
:1018A000180E2F6F306B316B080E366F3791010EAB
:1018B000FEEC08F0050E0001296F2A6B69EC08F0B8
:0418C000E6EF0BF054
:020000040030CA
:0E00000000271F1F0088850003C003E0034097
:00000001FF
