:020000040000FA
:1010000002EF08F067EF08F012010002000000088C
:10101000D804550001000102000105010905A101E4
:101020000901A10009300931150026FF0075089556
:10103000028102C005091901290815002501750161
:1010400095088102C00009022200010100803209D6
:101050000400000103010100092111010001222BFC
:10106000000705810308000104030904200353005D
:10107000750072007200650061006C006900740008
:10108000790020004C0061006200730014034E00E0
:101090004500530056006500720074006500720040
:1010A0000EBF66EF08F00EBD5CEF08F00D51EA6E62
:1010B0000C51E96EEF5012000C51F66E0D51F76EA7
:1010C0000E513F0BF86E0800F5501200120089EF28
:1010D00008F029512D6F2A512E6F326B336B7FEF41
:1010E00008F00001FF0E086F0E0E096F092F76EF52
:1010F00008F0082F74EF08F0322BD8B4332B32519C
:101100002D5D086F33512E5D0811D8A471EF08F0E2
:1011100012000001146B90EF0BF03C6F3751E16E41
:101120003851E26E3C513E6F3D6BA7EF08F03951EC
:101130003D250C6F000E006E3A5100200D6F3B51A3
:1011400000200E6F50EC08F0E66E00013D2B3D5183
:101150003E5DD8A497EF08F01200020104BF120010
:1011600000011351105DD8B4BBEF08F0D8B0BBEF4D
:1011700008F01051136FD88013511155376F375144
:10118000125DD8B4C9EF08F0D8B0C9EF08F0125119
:10119000376F780E11250201066F000E006E020EE9
:1011A0000020076F000137510201056F04ADDDEF2C
:1011B00008F0880E046FDFEF08F0C80E046F00011E
:1011C000375111271151135D1200080E126F116B68
:1011D000136B106B0201049DADEF08F0366F3651B2
:1011E0000201786F080E0001126F116B010E136F70
:1011F000010E106F0201049DADEF08F0296F295117
:10120000D8A425EF09F0180E376F020E386F2F5152
:10121000396F30513A6F31513B6F35518DEC08F0D9
:10122000180E0201066F020E076F000136A11BEFB8
:1012300009F00201049D020104AD22EF09F0880EBD
:10124000046F1200C80E046F1200010E295DD8A4AD
:1012500050EF09F0280E376F020E386F2F51396F9B
:1012600030513A6F31513B6F35518DEC08F0280EFB
:1012700002010E6F020E0F6F0001355102010D6F5A
:10128000000136A146EF09F002010C9D02010CADF0
:101290004DEF09F0880E0C6F1200C80E0C6F120093
:1012A000020E295DD8B41200030E295D1200840ECF
:1012B000020100131200080E0201016F100E026FEE
:1012C000020E036F030E0001165DD8A46EEF09F045
:1012D0008C0E346F0201046B70EF09F0C80E346F8E
:1012E000000134510201006F1200346FD890343580
:1012F000376FD8903737D89037373729366F02EEA7
:1013000000F03651E9263551EF6E02EE00F037510C
:10131000E926800EEF6E12000201F95100010F6FF5
:10132000060E0F5DD8A445EF0AF00201FB51000143
:10133000346F0201FA510001356F136B010E345DF9
:10134000D8A4B5EF09F0120E136F780E376F020EA6
:10135000386F080E396F100E3A6F000E40093B6F60
:1013600013518DEC08F028EF0AF0020E345DD8A47A
:10137000CCEF09F0220E136F780E376F020E386F24
:10138000460E396F100E3A6F000E40093B6F135135
:101390008DEC08F028EF0AF0030E345DD8A413EFAB
:1013A0000AF03551D8A4E5EF09F0040E136F780E5A
:1013B000376F020E386F680E396F100E3A6F000EDD
:1013C00040093B6F13518DEC08F0010E0001355DB3
:1013D000D8A4FBEF09F0200E136F780E376F020EC2
:1013E000386F6C0E396F100E3A6F000E40093B6F6C
:1013F00013518DEC08F0020E0001355DD8A428EFE2
:101400000AF0140E136F780E376F020E386F8C0EC1
:10141000396F100E3A6F000E40093B6F13518DEC7F
:1014200008F028EF0AF0220E345DD8A428EF0AF065
:101430002B0E136F780E376F020E386F1A0E396F3E
:10144000100E3A6F000E40093B6F13518DEC08F0FF
:1014500000011351D8B443EF0AF0080E126F0201D5
:10146000FF51D8A439EF0AF0FE510001106F3CEF94
:101470000AF0FF0E0001106F030E166F116B0201D0
:10148000049DADEF08F057EF09F0050E0F5DD8A4ED
:1014900056EF0AF00201FA510001176F010E156FA5
:1014A000E5EC08F0060E0001166F1200090E0F5D44
:1014B000D8A473EF0AF0060E166FE5EC08F0030EE1
:1014C0000001146F0F015489548554835487400ED2
:1014D00002010C6F080E096F200E0A6F020E0B6FCF
:1014E000800E086F12000A0E0F5DD8A47DEF0AF07F
:1014F000030E166F010EEEEF08F00F51D8A484EF23
:101500000AF0000EEEEF08F01200D89063302B6F57
:10151000D8902B33D8902B3363A49BEF0AF0D8904C
:101520000201043100012F6FD8902F330F0E2F15B9
:101530002D6FA5EF0AF0D8900201003100012F6F46
:10154000D8902F330F0E2F152D6F2B51D8A433EFBA
:101550000BF00D0E2D5DD8A4D6EF0AF0326B02EE23
:1015600010F03251E926EF50086F02EEF8F03251D8
:10157000E9260851EF6E322B080E325DD8A4AFEF8A
:101580000AF064985BEC09F0300E0201F8150001D6
:101590002F6F2F51D8A4CFEF0AF08CEF09F0200E57
:1015A0002F5DD8B41200400E2F5D1200090E2D5D84
:1015B000D8A4FCEF0AF0030E165DD8A4E2EF0AF0FF
:1015C000ADEF08F0060E165DD8A4F5EF0AF0166B25
:1015D000010E155DD8A4FBEF0AF0020E146F17512F
:1015E0000F015C6F0001156B1200050E165DD8B47B
:1015F0001200040E165D1200020E2D5DD8A413EF2A
:101600000BF0030E165DD8A408EF0BF0ADEF08F059
:10161000040E165DD8B41200060E165DD8A412EFA3
:101620000BF0166B1200010E2D5DD8A43AEF0BF0F3
:10163000050E165DD8A420EF0BF0166B5BEF09F0DA
:10164000020E165DD8A427EF0BF05BEF09F0030E36
:10165000165DD8A431EF0BF05BEC09F00001166BBE
:1016600012005BEF09F063B41200080E356F2B51C6
:1016700075EF09F01200A1A485EF0BF0A194000111
:10168000296B62A647EF0BF085EC0AF06296000129
:10169000292B040E295DD8A441EF0BF062A07BEF4B
:1016A0000BF00F015F6B626A0001176B0F01546B47
:1016B000556B566B576B586B596B5A6B160E536FB5
:1016C00062A666EF0BF0629660EF0BF00001166BFE
:1016D000156B6498080E0201056F180E066F020E56
:1016E000076F046B080E016F100E026F020E036F7E
:1016F0008C0E006F629062BA629A62B8629862BCA5
:10170000629C62A285EF0BF062921200030E000150
:10171000145DD8A48EEF0BF008811200089112001E
:10172000186B196B1A6B1B6B1C6B1D6B1E6B1F6B85
:10173000206B800E216F226B800E236FFF0E246FB3
:10174000256B266B7E6A7F6AC26AC16AC06A6D6A4F
:101750006B6A6C6A146B646A140E616E6B0E606E59
:10176000A094626A646A6486010E146F948C9486F5
:101770009488948A938E94829484938A3BEC0BF0A1
:1017800086EC0BF00001279108B1278127A1BEEF5D
:101790000BF0800E236F82BCD0EF0BF0800E23275E
:1017A00082B6D5EF0BF07F0E2327800E216F82B813
:1017B000DCEF0BF0800E212782BAE1EF0BF07F0EF9
:1017C0002127256B81BEE6EF0BF0252B82B2EBEFD4
:1017D0000BF0020E252782B4F0EF0BF0040E252744
:1017E00081BAF5EF0BF0080E25272051215DD8B402
:1017F000FEEF0BF0010E266F2151206F2251235D69
:10180000D8B407EF0CF0010E266F2351226F24513C
:10181000255DD8B410EF0CF0010E266F2551246F12
:10182000010E265DD8A4BEEF0BF0266B2051186F79
:101830002251196F24511A6F080E2B6F2C6B180E42
:101840002F6F306B316B080E356F3691010EFEEC49
:1018500008F00A0E0001296F2A6B69EC08F0BEEF50
:021860000BF08B
:00000001FF
